{
  "address": "0x3466DE9Ec4db79B75Dcd2bFad13Bbb145105e56c",
  "abi": [
    {
      "inputs": [
        {
          "internalType": "uint256",
          "name": "_a",
          "type": "uint256"
        },
        {
          "internalType": "uint256",
          "name": "_b",
          "type": "uint256"
        }
      ],
      "name": "adder",
      "outputs": [
        {
          "internalType": "uint256",
          "name": "sum",
          "type": "uint256"
        },
        {
          "internalType": "bool",
          "name": "error",
          "type": "bool"
        }
      ],
      "stateMutability": "pure",
      "type": "function"
    },
    {
      "inputs": [
        {
          "internalType": "uint256",
          "name": "_a",
          "type": "uint256"
        },
        {
          "internalType": "uint256",
          "name": "_b",
          "type": "uint256"
        }
      ],
      "name": "subtractor",
      "outputs": [
        {
          "internalType": "uint256",
          "name": "difference",
          "type": "uint256"
        },
        {
          "internalType": "bool",
          "name": "error",
          "type": "bool"
        }
      ],
      "stateMutability": "pure",
      "type": "function"
    }
  ],
  "transactionHash": "0xb52fb724c7088c747f0e8043f02dff4396c5b42c004adb0f86d4bc75217d37b4",
  "args": [],
  "numDeployments": 2,
  "solcInputHash": "dd5238c089e8bbe973629a9475a2dfb0",
  "bytecode": "0x608060405234801561001057600080fd5b5060ed8061001f6000396000f3fe6080604052348015600f57600080fd5b506004361060325760003560e01c806306b034e91460375780635270312a14605f575b600080fd5b604660423660046096565b606e565b6040805192835290151560208301520160405180910390f35b6046606a3660046096565b607e565b81810182821781105b9250929050565b80820382821781118015607757600091509250929050565b6000806040838503121560a857600080fd5b5050803592602090910135915056fea264697066735822122000995117239a5caf8806168213c6b822893e67397dae5bd0e4f4538a5e60a8a864736f6c63430008110033",
  "devdoc": {
    "author": "tekh.eth",
    "kind": "dev",
    "methods": {},
    "version": 1
  },
  "userdoc": {
    "kind": "user",
    "methods": {},
    "notice": "base camp exercise 1",
    "version": 1
  },
  "storageLayout": {
    "storage": [],
    "types": null
  }
}